:1000000009C019C041C017C016C015C014C013C024
:1000100012C011C011241FBECFE9CDBF10E0A0E671
:10002000B0E0ECE8F1E002C005900D92AC36B1070B
:10003000D9F72BD0A9C0E4CFBB9ABC98BB98089540
:1000400098E0BB9A87FDBB98BC98BC9A880F9150EA
:10005000C1F7BB98BC98BC9A0895BB9ABC9AF0CFE4
:10006000CF93C82F82E2F9DF82E08C0FE9DFEC2F1B
:10007000F0E0EE0FFF1FE05AFF4FC0818181E0DF0B
:100080008C2FDEDFCF91D8CF189588B3876088BBDF
:1000900080E28BBF87E085BB789416B880E888B98A
:1000A00083E085BD85B7877E806185BF87B3877E06
:1000B00087BB88B3877E88BBC0916000D091610008
:1000C000CE01826090936100809360008091660011
:1000D000909167008560909367008093660080E24E
:1000E000BCDF00E610E0F801F08081810E5F1F4F59
:1000F000A7DF8F2DA5DFF0E00C361F07A1F79CDFEF
:10010000CD7FD0936100C093600080E0A9DFD16013
:10011000D0936100C093600080E0A2DFC5E085B7A6
:10012000806285BF889585B78F7D85BF8BE291E022
:100130000197F1F700C0000086B380958770823088
:1001400079F0843089F0813051F78091600090918E
:1001500061009160909361008093600080E012C024
:10016000CC23E9F2C15003C0CF30C8F6CF5F8091F5
:10017000660090916700807F8C2B9093670080933E
:0C018000660083E06DDFCBCFF894FFCF6A
:0C018C0005D2C015000A808800000000A9
:00000001FF
